{
  "contractName": "AttributionSplitter",
  "abi": [
    {
      "inputs": [
        {
          "internalType": "address[]",
          "name": "payees",
          "type": "address[]"
        },
        {
          "internalType": "uint256[]",
          "name": "shares",
          "type": "uint256[]"
        },
        {
          "internalType": "string",
          "name": "s",
          "type": "string"
        }
      ],
      "stateMutability": "payable",
      "type": "constructor",
      "payable": true
    },
    {
      "anonymous": false,
      "inputs": [
        {
          "indexed": false,
          "internalType": "address",
          "name": "account",
          "type": "address"
        },
        {
          "indexed": false,
          "internalType": "uint256",
          "name": "shares",
          "type": "uint256"
        }
      ],
      "name": "PayeeAdded",
      "type": "event"
    },
    {
      "anonymous": false,
      "inputs": [
        {
          "indexed": false,
          "internalType": "address",
          "name": "from",
          "type": "address"
        },
        {
          "indexed": false,
          "internalType": "uint256",
          "name": "amount",
          "type": "uint256"
        }
      ],
      "name": "PaymentReceived",
      "type": "event"
    },
    {
      "anonymous": false,
      "inputs": [
        {
          "indexed": false,
          "internalType": "address",
          "name": "to",
          "type": "address"
        },
        {
          "indexed": false,
          "internalType": "uint256",
          "name": "amount",
          "type": "uint256"
        }
      ],
      "name": "PaymentReleased",
      "type": "event"
    },
    {
      "inputs": [],
      "name": "addr",
      "outputs": [
        {
          "internalType": "string",
          "name": "",
          "type": "string"
        }
      ],
      "stateMutability": "view",
      "type": "function",
      "constant": true
    },
    {
      "inputs": [],
      "name": "attr",
      "outputs": [
        {
          "internalType": "string",
          "name": "",
          "type": "string"
        }
      ],
      "stateMutability": "view",
      "type": "function",
      "constant": true
    },
    {
      "inputs": [
        {
          "internalType": "uint256",
          "name": "index",
          "type": "uint256"
        }
      ],
      "name": "payee",
      "outputs": [
        {
          "internalType": "address",
          "name": "",
          "type": "address"
        }
      ],
      "stateMutability": "view",
      "type": "function",
      "constant": true
    },
    {
      "inputs": [
        {
          "internalType": "address payable",
          "name": "account",
          "type": "address"
        }
      ],
      "name": "release",
      "outputs": [],
      "stateMutability": "nonpayable",
      "type": "function"
    },
    {
      "inputs": [
        {
          "internalType": "address",
          "name": "account",
          "type": "address"
        }
      ],
      "name": "released",
      "outputs": [
        {
          "internalType": "uint256",
          "name": "",
          "type": "uint256"
        }
      ],
      "stateMutability": "view",
      "type": "function",
      "constant": true
    },
    {
      "inputs": [
        {
          "internalType": "address",
          "name": "account",
          "type": "address"
        }
      ],
      "name": "shares",
      "outputs": [
        {
          "internalType": "uint256",
          "name": "",
          "type": "uint256"
        }
      ],
      "stateMutability": "view",
      "type": "function",
      "constant": true
    },
    {
      "inputs": [],
      "name": "totalReleased",
      "outputs": [
        {
          "internalType": "uint256",
          "name": "",
          "type": "uint256"
        }
      ],
      "stateMutability": "view",
      "type": "function",
      "constant": true
    },
    {
      "inputs": [],
      "name": "totalShares",
      "outputs": [
        {
          "internalType": "uint256",
          "name": "",
          "type": "uint256"
        }
      ],
      "stateMutability": "view",
      "type": "function",
      "constant": true
    },
    {
      "stateMutability": "payable",
      "type": "receive",
      "payable": true
    },
    {
      "inputs": [
        {
          "internalType": "string",
          "name": "x",
          "type": "string"
        }
      ],
      "name": "set",
      "outputs": [],
      "stateMutability": "nonpayable",
      "type": "function"
    }
  ],
  "bytecode": "0x60806040526040518060400160405280600381526020017f73747200000000000000000000000000000000000000000000000000000000008152506005908051906020019062000051929190620008da565b506200006330620003e460201b60201c565b600690805190602001906200007a929190620008da565b50604051620018e4380380620018e483398181016040526060811015620000a057600080fd5b8101908080516040519392919084640100000000821115620000c157600080fd5b83820191506020820185811115620000d857600080fd5b8251866020820283011164010000000082111715620000f657600080fd5b8083526020830192505050908051906020019060200280838360005b838110156200012f57808201518184015260208101905062000112565b50505050905001604052602001805160405193929190846401000000008211156200015957600080fd5b838201915060208201858111156200017057600080fd5b82518660208202830111640100000000821117156200018e57600080fd5b8083526020830192505050908051906020019060200280838360005b83811015620001c7578082015181840152602081019050620001aa565b5050505090500160405260200180516040519392919084640100000000821115620001f157600080fd5b838201915060208201858111156200020857600080fd5b82518660018202830111640100000000821117156200022657600080fd5b8083526020830192505050908051906020019080838360005b838110156200025c5780820151818401526020810190506200023f565b50505050905090810190601f1680156200028a5780820380516001836020036101000a031916815260200191505b5060405250505082828051825114620002ef576040517f08c379a0000000000000000000000000000000000000000000000000000000008152600401808060200182810382526032815260200180620018876032913960400191505060405180910390fd5b600082511162000367576040517f08c379a000000000000000000000000000000000000000000000000000000000815260040180806020018281038252601a8152602001807f5061796d656e7453706c69747465723a206e6f2070617965657300000000000081525060200191505060405180910390fd5b60008090505b8251811015620003bf57620003b18382815181106200038857fe5b60200260200101518383815181106200039d57fe5b60200260200101516200054a60201b60201c565b80806001019150506200036d565b5050508060059080519060200190620003da929190620008da565b5050505062000989565b60608060286040519080825280601f01601f1916602001820160405280156200041c5781602001600182028038833980820191505090505b50905060008090505b6014811015620005405760008160130360080260020a8573ffffffffffffffffffffffffffffffffffffffff16816200045a57fe5b0460f81b9050600060108260f81c60ff16816200047357fe5b0460f81b905060008160f81c6010028360f81c0360f81b90506200049d826200081b60201b60201c565b858560020281518110620004ad57fe5b60200101907effffffffffffffffffffffffffffffffffffffffffffffffffffffffffffff1916908160001a905350620004ed816200081b60201b60201c565b8560018660020201815181106200050057fe5b60200101907effffffffffffffffffffffffffffffffffffffffffffffffffffffffffffff1916908160001a905350505050808060010191505062000425565b5080915050919050565b600073ffffffffffffffffffffffffffffffffffffffff168273ffffffffffffffffffffffffffffffffffffffff161415620005d2576040517f08c379a000000000000000000000000000000000000000000000000000000000815260040180806020018281038252602c8152602001806200185b602c913960400191505060405180910390fd5b6000811162000649576040517f08c379a000000000000000000000000000000000000000000000000000000000815260040180806020018281038252601d8152602001807f5061796d656e7453706c69747465723a2073686172657320617265203000000081525060200191505060405180910390fd5b6000600260008473ffffffffffffffffffffffffffffffffffffffff1673ffffffffffffffffffffffffffffffffffffffff1681526020019081526020016000205414620006e3576040517f08c379a000000000000000000000000000000000000000000000000000000000815260040180806020018281038252602b815260200180620018b9602b913960400191505060405180910390fd5b6004829080600181540180825580915050600190039060005260206000200160009091909190916101000a81548173ffffffffffffffffffffffffffffffffffffffff021916908373ffffffffffffffffffffffffffffffffffffffff16021790555080600260008473ffffffffffffffffffffffffffffffffffffffff1673ffffffffffffffffffffffffffffffffffffffff16815260200190815260200160002081905550620007a6816000546200085160201b62000a4d1790919060201c565b6000819055507f40c340f65e17194d14ddddb073d3c9f888e3cb52b5aae0c6c7706b4fbc905fac8282604051808373ffffffffffffffffffffffffffffffffffffffff1673ffffffffffffffffffffffffffffffffffffffff1681526020018281526020019250505060405180910390a15050565b6000600a8260f81c60ff1610156200083f5760308260f81c0160f81b90506200084c565b60578260f81c0160f81b90505b919050565b600080828401905083811015620008d0576040517f08c379a000000000000000000000000000000000000000000000000000000000815260040180806020018281038252601b8152602001807f536166654d6174683a206164646974696f6e206f766572666c6f77000000000081525060200191505060405180910390fd5b8091505092915050565b828054600181600116156101000203166002900490600052602060002090601f016020900481019282601f106200091d57805160ff19168380011785556200094e565b828001600101855582156200094e579182015b828111156200094d57825182559160200191906001019062000930565b5b5090506200095d919062000961565b5090565b6200098691905b808211156200098257600081600090555060010162000968565b5090565b90565b610ec280620009996000396000f3fe60806040526004361061008a5760003560e01c8063767800de11610059578063767800de146102dc5780638b83209b1461036c5780639852595c146103e7578063ce7c2ac21461044c578063e33b7de3146104b157610103565b806319165587146101085780632f03e688146101595780633a98ef39146101e95780634ed3885e1461021457610103565b36610103577f6ef95f06320e7a25a04a175ca677b7052bdd97131872c2192525a629f51be7706100b86104dc565b34604051808373ffffffffffffffffffffffffffffffffffffffff1673ffffffffffffffffffffffffffffffffffffffff1681526020018281526020019250505060405180910390a1005b600080fd5b34801561011457600080fd5b506101576004803603602081101561012b57600080fd5b81019080803573ffffffffffffffffffffffffffffffffffffffff1690602001909291905050506104e4565b005b34801561016557600080fd5b5061016e610811565b6040518080602001828103825283818151815260200191508051906020019080838360005b838110156101ae578082015181840152602081019050610193565b50505050905090810190601f1680156101db5780820380516001836020036101000a031916815260200191505b509250505060405180910390f35b3480156101f557600080fd5b506101fe6108af565b6040518082815260200191505060405180910390f35b34801561022057600080fd5b506102da6004803603602081101561023757600080fd5b810190808035906020019064010000000081111561025457600080fd5b82018360208201111561026657600080fd5b8035906020019184600183028401116401000000008311171561028857600080fd5b91908080601f016020809104026020016040519081016040528093929190818152602001838380828437600081840152601f19601f8201169050808301925050505050505091929192905050506108b8565b005b3480156102e857600080fd5b506102f16108d2565b6040518080602001828103825283818151815260200191508051906020019080838360005b83811015610331578082015181840152602081019050610316565b50505050905090810190601f16801561035e5780820380516001836020036101000a031916815260200191505b509250505060405180910390f35b34801561037857600080fd5b506103a56004803603602081101561038f57600080fd5b8101908080359060200190929190505050610970565b604051808273ffffffffffffffffffffffffffffffffffffffff1673ffffffffffffffffffffffffffffffffffffffff16815260200191505060405180910390f35b3480156103f357600080fd5b506104366004803603602081101561040a57600080fd5b81019080803573ffffffffffffffffffffffffffffffffffffffff1690602001909291905050506109b1565b6040518082815260200191505060405180910390f35b34801561045857600080fd5b5061049b6004803603602081101561046f57600080fd5b81019080803573ffffffffffffffffffffffffffffffffffffffff1690602001909291905050506109fa565b6040518082815260200191505060405180910390f35b3480156104bd57600080fd5b506104c6610a43565b6040518082815260200191505060405180910390f35b600033905090565b6000600260008373ffffffffffffffffffffffffffffffffffffffff1673ffffffffffffffffffffffffffffffffffffffff168152602001908152602001600020541161057c576040517f08c379a0000000000000000000000000000000000000000000000000000000008152600401808060200182810382526026815260200180610e1b6026913960400191505060405180910390fd5b600061059360015447610a4d90919063ffffffff16565b9050600061064e600360008573ffffffffffffffffffffffffffffffffffffffff1673ffffffffffffffffffffffffffffffffffffffff16815260200190815260200160002054610640600054610632600260008973ffffffffffffffffffffffffffffffffffffffff1673ffffffffffffffffffffffffffffffffffffffff1681526020019081526020016000205487610ad590919063ffffffff16565b610b5b90919063ffffffff16565b610ba590919063ffffffff16565b905060008114156106aa576040517f08c379a000000000000000000000000000000000000000000000000000000000815260040180806020018281038252602b815260200180610e41602b913960400191505060405180910390fd5b6106fc81600360008673ffffffffffffffffffffffffffffffffffffffff1673ffffffffffffffffffffffffffffffffffffffff16815260200190815260200160002054610a4d90919063ffffffff16565b600360008573ffffffffffffffffffffffffffffffffffffffff1673ffffffffffffffffffffffffffffffffffffffff1681526020019081526020016000208190555061075481600154610a4d90919063ffffffff16565b6001819055508273ffffffffffffffffffffffffffffffffffffffff166108fc829081150290604051600060405180830381858888f193505050501580156107a0573d6000803e3d6000fd5b507fdf20fd1e76bc69d672e4814fafb2c449bba3a5369d8359adf9e05e6fde87b0568382604051808373ffffffffffffffffffffffffffffffffffffffff1673ffffffffffffffffffffffffffffffffffffffff1681526020018281526020019250505060405180910390a1505050565b60058054600181600116156101000203166002900480601f0160208091040260200160405190810160405280929190818152602001828054600181600116156101000203166002900480156108a75780601f1061087c576101008083540402835291602001916108a7565b820191906000526020600020905b81548152906001019060200180831161088a57829003601f168201915b505050505081565b60008054905090565b80600590805190602001906108ce929190610d75565b5050565b60068054600181600116156101000203166002900480601f0160208091040260200160405190810160405280929190818152602001828054600181600116156101000203166002900480156109685780601f1061093d57610100808354040283529160200191610968565b820191906000526020600020905b81548152906001019060200180831161094b57829003601f168201915b505050505081565b60006004828154811061097f57fe5b9060005260206000200160009054906101000a900473ffffffffffffffffffffffffffffffffffffffff169050919050565b6000600360008373ffffffffffffffffffffffffffffffffffffffff1673ffffffffffffffffffffffffffffffffffffffff168152602001908152602001600020549050919050565b6000600260008373ffffffffffffffffffffffffffffffffffffffff1673ffffffffffffffffffffffffffffffffffffffff168152602001908152602001600020549050919050565b6000600154905090565b600080828401905083811015610acb576040517f08c379a000000000000000000000000000000000000000000000000000000000815260040180806020018281038252601b8152602001807f536166654d6174683a206164646974696f6e206f766572666c6f77000000000081525060200191505060405180910390fd5b8091505092915050565b600080831415610ae85760009050610b55565b6000828402905082848281610af957fe5b0414610b50576040517f08c379a0000000000000000000000000000000000000000000000000000000008152600401808060200182810382526021815260200180610e6c6021913960400191505060405180910390fd5b809150505b92915050565b6000610b9d83836040518060400160405280601a81526020017f536166654d6174683a206469766973696f6e206279207a65726f000000000000815250610bef565b905092915050565b6000610be783836040518060400160405280601e81526020017f536166654d6174683a207375627472616374696f6e206f766572666c6f770000815250610cb5565b905092915050565b60008083118290610c9b576040517f08c379a00000000000000000000000000000000000000000000000000000000081526004018080602001828103825283818151815260200191508051906020019080838360005b83811015610c60578082015181840152602081019050610c45565b50505050905090810190601f168015610c8d5780820380516001836020036101000a031916815260200191505b509250505060405180910390fd5b506000838581610ca757fe5b049050809150509392505050565b6000838311158290610d62576040517f08c379a00000000000000000000000000000000000000000000000000000000081526004018080602001828103825283818151815260200191508051906020019080838360005b83811015610d27578082015181840152602081019050610d0c565b50505050905090810190601f168015610d545780820380516001836020036101000a031916815260200191505b509250505060405180910390fd5b5060008385039050809150509392505050565b828054600181600116156101000203166002900490600052602060002090601f016020900481019282601f10610db657805160ff1916838001178555610de4565b82800160010185558215610de4579182015b82811115610de3578251825591602001919060010190610dc8565b5b509050610df19190610df5565b5090565b610e1791905b80821115610e13576000816000905550600101610dfb565b5090565b9056fe5061796d656e7453706c69747465723a206163636f756e7420686173206e6f207368617265735061796d656e7453706c69747465723a206163636f756e74206973206e6f7420647565207061796d656e74536166654d6174683a206d756c7469706c69636174696f6e206f766572666c6f77a2646970667358221220fe0f7573a2811f6308114a951eadf95e640fcadad705b188a1be218331d7b6e364736f6c634300060000335061796d656e7453706c69747465723a206163636f756e7420697320746865207a65726f20616464726573735061796d656e7453706c69747465723a2070617965657320616e6420736861726573206c656e677468206d69736d617463685061796d656e7453706c69747465723a206163636f756e7420616c72656164792068617320736861726573",
  "source": "//SPDX-License-Identifier: Unlicense\npragma solidity ^0.6.0;\n\n// import \"hardhat/console.sol\";\n\n// Import PaymentSplitter from the OpenZeppelin Contracts library\nimport \"@openzeppelin/contracts/payment/PaymentSplitter.sol\";\n\n// Make AttributionSplitter inherit from\n// the PaymentSplitter contract\n//contract AttributionSplitter is PaymentSplitter{\n//\n//    constructor(\n//      address[] memory payees,\n//      uint256[] memory shares  \n//      // AGREGAR RERENCIA AL ATTRIBUTABLE\n//    ) PaymentSplitter(payees, shares) public payable{\n//\n//    }\n//\n//}\n//contract AttributionSplitter{\n\ncontract AttributionSplitter is PaymentSplitter{\n  string public attr = \"str\";\n  string public addr = toAsciiString(address(this));\n\n  constructor(\n    address[] memory payees,\n    uint256[] memory shares,\n    string memory s\n  ) PaymentSplitter( payees, shares ) public payable{\n    attr = s;\n    //for (uint256 i = 0; i < payees.length; i++) {\n    //    _addPayee(payees[i], shares[i]);\n    //}\n  }\n\n\n  function set(string memory x) public {\n    attr = x;\n  }\n\n  function toAsciiString(address x) private returns (string memory ) {\n      bytes memory s = new bytes(40);\n      for (uint i = 0; i < 20; i++) {\n          byte b = byte(uint8(uint(x) / (2**(8*(19 - i)))));\n          byte hi = byte(uint8(b) / 16);\n          byte lo = byte(uint8(b) - 16 * uint8(hi));\n          s[2*i] = char(hi);\n          s[2*i+1] = char(lo);            \n      }\n      return string(s);\n  }\n  \n  function char(byte b)  private returns (byte c) {\n      if (uint8(b) < 10) return byte(uint8(b) + 0x30);\n      else return byte(uint8(b) + 0x57);\n  }\n}\n\n\n",
  "sourcePath": "/root/Documents/Academicos/UTN/BLOCKCHAIN/drizzle-react-tutorial/contracts/AttributionSplitter.sol",
  "compiler": {
    "name": "solc",
    "version": "0.6.0+commit.26b70077.Emscripten.clang"
  },
  "schemaVersion": "3.2.5",
  "updatedAt": "2020-11-21T20:58:07.940Z",
  "networkType": "ethereum",
  "devdoc": {
    "methods": {
      "payee(uint256)": {
        "details": "Getter for the address of the payee number `index`."
      },
      "release(address)": {
        "details": "Triggers a transfer to `account` of the amount of Ether they are owed, according to their percentage of the total shares and their previous withdrawals."
      },
      "released(address)": {
        "details": "Getter for the amount of Ether already released to a payee."
      },
      "shares(address)": {
        "details": "Getter for the amount of shares held by an account."
      },
      "totalReleased()": {
        "details": "Getter for the total amount of Ether already released."
      },
      "totalShares()": {
        "details": "Getter for the total shares held by payees."
      }
    }
  },
  "userdoc": {
    "methods": {}
  }
}